:08018B00020A00000208000056
:05019400C2B4C2B52257
:05019900D2B4D2B52232
:05019E00C2B5D2B4223D
:10012800D3EF9400EE940040147D6E7C00ED1D70BA
:0D013800011CED4C70F7EF1F70E61E80E318
:010145002297
:10014600C2B5C2B47F647E00120128D2B47F647E39
:04015600000201287A
:10015A00D2B5D2B47F647E00120128C2B57F647E14
:04016A000002012866
:10016E00438901758CFC758A18C28DD28CD2A9D2A6
:04017E00AFC28C225E
:09018200D2A8D288C2B8D2AF2283
:030003000200F9FF
:1000F900C0E0C0D075D000C004C005C006C0070567
:1001090009E50970020508C2A07FD07E07120128FF
:0F011900D2A0D007D006D005D004D0D0D0E0328D
:1000920012016E120182120194E50964034508708F
:1000A2000512014680F3E509640445087005120152
:1000B2009480F3E50964064508701512019E7F8855
:1000C2007E131201281201990509E509700205083B
:1000D200E509640A4508700512015A80F3E50964CE
:1000E2000B4508700512019980F3E509640D450876
:0700F20070A712019E80A21D
:03000000020006F5
:0C000600787FE4F6D8FD75810B02004DF8
:10001200020092E493A3F8E493A34003F68001F272
:1000220008DFF48029E493A3F85407240CC8C333EF
:10003200C4540F4420C8834004F456800146F6DFBE
:10004200E4800B010204081020408090018BE47EC2
:10005200019360BCA3FF543F30E509541FFEE493B3
:10006200A360010ECF54C025E060A840B8E493A37A
:10007200FAE493A3F8E493A3C8C582C8CAC583CAA5
:10008200F0A3C8C582C8CAC583CADFE9DEE780BE5D
:01019300006B
:00000001FF
